:100000000A128A11FC2FFF1B0D2883137F188317F8
:100010000008840A0319FF0A080000308A00040857
:10002000840A82070034013400340A340034643412
:100030000034E834033410342734533431343A3440
:100040000034533432343A340034533433343A3491
:0800500000342534753400343E
:1002E600F0007008831203139300080083160313AB
:1002F600141C7E297F29792908000A128A1179217E
:100306000A128A11831203131308080000300A1216
:100316008A11B9210A128A1101300A128A11B921E9
:100326000A128A110800F1007108F000F00E831617
:1003360003130F0870068F3970068F000F1408001C
:10034600F300831603138712731DAA29AB29AF295D
:10035600720894008715B3297008720494008711F7
:10036600730871048312031394000800F3008312C8
:100376000313081173080A128A11D3210A128A116B
:100386008312031388150B30F2006230F100F10B73
:10039600CA29F20BCA290000831203138811080028
:1003A600F000701CD729D829DC29831203130816FC
:1003B600DF29831203130812F01CE229E329E52939
:1003C6008816E6298812701DE929EA29EC290817FA
:1003D600ED290813F01DF029F129F3298817F429CE
:1003E60088130800831603178801890183160313EF
:1003F60086018801831203138601880106300A12DA
:100406008A1196210A128A110A128A11B8230A122F
:100416008A11831603138710831203138714831616
:1004260003130711831203130715F001F101F201FB
:1004360020300A128A11A3210A128A110800F40038
:1004460074080F39F2007408F039F30083120313AD
:1004560008157308F10004300310F10CFF3E031D6C
:100466002F2A71080A128A11D3210A128A118312BD
:10047600031388151A30F100F10B3F2A000083128E
:100486000313881172080A128A11D3210A128A11DB
:100496008312031388151A30F100F10B502A00005D
:1004A60083120313881108007808790403195C2A5B
:1004B6005D2A8C2AFD01FD0A6B2A01300310F80D16
:1004C600F90DFF3E031D612A0130FC007C08FD0783
:1004D600F91F6E2A6F2A602A79087B02031D752A86
:1004E60078087A02031C782A792A7F2A7808FA0281
:1004F6007908031CFB03FB0201300310F90CF80C0E
:10050600FF3E031D802A0130FD02031D8B2A8C2A23
:100516006F2A7B08F9007A08F8000800FA01FB0147
:10052600B62A7A087507F8007608F7000318F70A5E
:10053600FA1F9E2AF7037708F90079088312031336
:10054600FF00780884000A128A1103200A128A1111
:100556000A128A1122220A128A110130FA07031896
:10056600FB0A0030FB077A087507F8007608F700E3
:100576000318F70AFA1FC02AF7037708F900790863
:1005860083120313FF00780884000A128A110320DD
:100596000A128A11003A031DD12AD22A942A080087
:1005A600F501F601700871040319DA2ADB2A122B09
:1005B600F701F70AE92A01300310F00DF10DFF3EAD
:1005C600031DDF2A0130F4007408F707F11FEC2A37
:1005D600ED2ADE2A01300310F50DF60DFF3E031D50
:1005E600EE2A71087302031DFA2A70087202031CB0
:1005F600FD2AFE2A052B7008F2027108031CF3037C
:10060600F302751401300310F10CF00CFF3E031DCC
:10061600062B0130F702031D112B122BED2A76084B
:10062600F1007508F0000800F6007603031D1C2B88
:100636001D2B3A2B74087F3EF9007908F50004302B
:100646000310F50CFF3E031D232B7508F7007908F0
:100656000F39F80077080A128A11B9210A128A118D
:1006660078080A128A11B9210A128A115C2B023003
:100676007606031D3F2B402B5C2B7408BF3EF9000A
:100686007908F50004300310F50CFF3E031D462BD8
:100696007508F70079080F39F80077080A128A11E9
:1006A600B9210A128A1178080A128A11B9210A1286
:1006B6008A11080083120313A101FC1F632B642B0C
:1006C6006B2BFB09FC09FB0A0319FC0AA101A10A11
:1006D600FA1F6E2B6F2B742BF909FA09F90A031905
:1006E600FA0A79087A040319792B7A2BA92BA00127
:1006F600A00A882B01300310F90DFA0DFF3E031DE9
:100706007E2B0130FD007D08A007FA1F8B2B8C2B5A
:100716007D2B7A087C02031D922B79087B02031C31
:10072600952B962B9C2B7908FB027A08031CFC035D
:10073600FC0201300310FA0CF90CFF3E031D9D2B41
:100746000130A002031DA82BA92B8C2B210803190D
:10075600AD2BAE2BB32BFB09FC09FB0A0319FC0AD4
:100766007C08FA007B08F900080000300A128A119A
:10077600D3210A128A113430F500F130F400F40B5B
:10078600C22BF50BC22BC72B03300A128A11B921D3
:100796000A128A110D30F500FB30F400F40BD12B50
:1007A600F50BD12BD62B03300A128A11B9210A1266
:1007B6008A111D30F5009130F400F40BE02BF50B97
:1007C600E02B03300A128A11B9210A128A1102306B
:1007D6000A128A11B9210A128A1102300A128A11E2
:1007E600B9210A128A1108300A128A11B9210A128D
:1007F6008A1100300A128A11B9210A128A110C30A4
:100806000A128A11B9210A128A1100300A128A11B3
:10081600B9210A128A1106300A128A11B9210A125E
:100826008A110800F601F11F192C1A2C212CF00947
:10083600F109F00A0319F10AF601F60AF31F242C4E
:10084600252C2E2CF209F309F20A0319F30A0130BA
:10085600F4007408F606F701F8017008710403192C
:10086600352C362C6D2CF501F50A442C013003107D
:10087600F00DF10DFF3E031D3A2C0130F400740813
:10088600F507F11F472C482C392C01300310F70DC2
:10089600F80DFF3E031D492C71087302031D552CEC
:1008A60070087202031C582C592C602C7008F20236
:1008B6007108031CF303F302771401300310F10CE3
:1008C600F00CFF3E031D612C0130F502031D6C2C5C
:1008D6006D2C482C76080319712C722C772CF7098D
:1008E600F809F70A0319F80A7808F1007708F00002
:1008F600080083120313AB002130A700282D2530F2
:100906002C060319872C882C922C2B0884002C0883
:10091600831380000130A3002308AB07282DA6010E
:10092600992CC030A3002308A604B32C0130A007DD
:10093600FF30200784000A128A110D200A128A113C
:10094600AC00A300A4012408003A0319AB2C282DFF
:100956002308003A0319382D753A0319942C282DCB
:100966002708840083130008A800840A0008A90049
:100976000230A3002308A707AC01AC0A2C08A30089
:100986002307013E84000A128A110D200A128A11D9
:10099600A4000A128A110D200A128A11A500250840
:1009A6002902031DD82C240828020318DB2CDC2C72
:1009B600DD2CE72C0130A3002308AC0705302C06FC
:1009C600031DE62CE72CC12C2C08AA001F2D0A308B
:1009D600F8000030F9002A08A3002307013E84002E
:1009E6000A128A110D200A128A11F0000A128A11BF
:1009F6000D200A128A11F1002908F3002808F200D6
:100A06000A128A11D3220A128A117108FB00700891
:100A1600FA000A128A1157220A128A117808303E01
:100A260083120313AC002B0884002C088313800068
:100A36000130A3002308AB07FF30A3002308AA0751
:100A46002A0A031D272D282DEA2C0130A007FF3086
:100A5600200784000A128A110D200A128A11AC009E
:100A66002C08031D372D382D822C2B088400831368
:100A7600800108000A128A11F5210A128A110A1247
:100A86008A1189210A128A11F401F40A01300A1224
:100A96008A1117230A128A110B30F5008030F600EE
:100AA6000A128A1191220A128A110730F4000130C3
:100AB6000A128A1117230A128A110F30F5008030A4
:100AC600F6000A128A1191220A128A110D30F400D8
:100AD60001300A128A1117230A128A111330F500FF
:100AE6008030F6000A128A1191220A128A118312A4
:100AF60003138710C73083120313AD00822DAD0B8D
:100B0600812D852D8312031357080A128A1173212A
:100B16000A128A110A128A1180210A128A11831274
:100B26000313D400C73083120313AD009A2DAD0B07
:100B3600992D9D2D8312031387146430F000003025
:100B4600F1005408AD00AE012D08F2002E08F300A6
:100B56000A128A1115240A128A11700883120313C5
:100B6600CC000A30F9000030FA000A30F0000030FC
:100B7600F1005408AD00AE012D08F2002E08F30076
:100B86000A128A1115240A128A117108FC007008CB
:100B9600FB000A128A115D230A128A117908831250
:100BA6000313CB000A30F9000030FA005408AD00F8
:100BB600AE012D08FB002E08FC000A128A115D23E7
:100BC6000A128A11790883120313CA001730A0008B
:100BD6004C08AD00AE012D08A1002E08A2002F3052
:100BE6000A128A117C240A128A11F401F40A0230CC
:100BF6000A128A1117230A128A112F30F5000030C3
:100C0600F6000A128A1191220A128A1117308312EB
:100C16000313A0004B08AD00AE012D08A1002E085D
:100C2600A2002F300A128A117C240A128A1102307D
:100C3600F40002300A128A1117230A128A112F3081
:100C4600F5000030F6000A128A1191220A128A1162
:100C5600173083120313A0004A08AD00AE012D0819
:100C6600A1002E08A2002F300A128A117C240A1233
:100C76008A110330F40002300A128A1117230A126D
:100C86008A112F30F5000030F6000A128A119122DF
:100C96000A128A11831203130711C7308312031332
:100CA600AD00552EAD0B542E582E83120313570844
:100CB6000A128A1173210A128A110A128A118021D4
:100CC6000A128A1183120313D30041305306031DFF
:100CD6006D2E6E2E7D2E57080A128A1173210A1266
:100CE6008A110A128A1180210A128A1183120313A9
:100CF600D500912E43305306031D822E832E912E4E
:100D060057080A128A1173210A128A110A128A11C5
:100D160080210A128A1183120313D600C730831268
:100D26000313AD00962EAD0B952E992E8312031349
:100D360007156430F0000030F1005508AD00AE0133
:100D46002D08F2002E08F3000A128A1115240A1241
:100D56008A11700883120313CF000A30F90000309D
:100D6600FA000A30F0000030F1005508AD00AE017F
:100D76002D08F2002E08F3000A128A1115240A1211
:100D86008A117108FC007008FB000A128A115D23A3
:100D96000A128A11790883120313CE000A30F90069
:100DA6000030FA005508AD00AE012D08FB002E08F4
:100DB600FC000A128A115D230A128A11790883122D
:100DC6000313CD001730A0004F08AD00AE012D086B
:100DD600A1002E08A20038300A128A117C240A12B9
:100DE6008A110730F40002300A128A1117230A12F8
:100DF6008A113830F5000030F6000A128A11912265
:100E06000A128A11173083120313A0004E08AD0090
:100E1600AE012D08A1002E08A20038300A128A1150
:100E26007C240A128A110830F40002300A128A1150
:100E360017230A128A113830F5000030F6000A121C
:100E46008A1191220A128A11173083120313A00005
:100E56004D08AD00AE012D08A1002E08A2003830C5
:100E66000A128A117C240A128A110930F40002300F
:100E76000A128A1117230A128A113830F500003037
:100E8600F6000A128A1191220A128A116430F000C1
:100E96000030F100831203135608AD00AE012D0891
:100EA600F2002E08F3000A128A1115240A128A117A
:100EB600700883120313D2000A30F9000030FA00DA
:100EC6000A30F0000030F1005608AD00AE012D08E2
:100ED600F2002E08F3000A128A1115240A128A114A
:100EE6007108FC007008FB000A128A115D230A12C1
:100EF6008A11790883120313D1000A30F9000030F1
:100F0600FA005608AD00AE012D08FB002E08FC00C5
:100F16000A128A115D230A128A11790883120313B1
:100F2600D0001730A0005208AD00AE012D08A10078
:100F36002E08A20041300A128A117C240A128A1154
:100F46000D30F40002300A128A1117230A128A1190
:100F56004130F5000030F6000A128A1191220A1279
:100F66008A11173083120313A0005108AD00AE0199
:100F76002D08A1002E08A20041300A128A117C24F5
:100F86000A128A110E30F40002300A128A1117234F
:100F96000A128A114130F5000030F6000A128A1151
:100FA60091220A128A11173083120313A0005008E7
:100FB600AD00AE012D08A1002E08A20041300A1294
:100FC6008A117C240A128A110F30F40002300A12A8
:100FD6008A1117230A128A114130F5000030F600F3
:100FE6000A128A1191220A128A117A2D0A128A117C
:0A0FF600002883010A128A113D2D24
:08400000FF3FFF3FFF3FFF3FC0
:04400E00D420FF3F7C
:00000001FF
