:100000000A128A11FC2FFF1B0D2883137F188317F8
:100010000008840A0319FF0A080000308A00040857
:10002000840A82070034013400340A340034643412
:100030000034E834033410342734533431343A3440
:100040000034533432343A340034533433343A3491
:0800500000342534753400343E
:1002E800F0007008831203139300080083160313A9
:1002F800141C7F2980297A2908000A128A117A2178
:100308000A128A11831203131308080000300A1214
:100318008A11BA210A128A1101300A128A11BA21E5
:100328000A128A110800F1007108F000F00E831615
:1003380003130F0870068F3970068F000F1408001A
:10034800F300831603138712731DAB29AC29B02958
:10035800720894008715B4297008720494008711F4
:10036800730871048312031394000800F3008312C6
:100378000313081173080A128A11D4210A128A1168
:100388008312031388150B30F2006230F100F10B71
:10039800CB29F20BCB290000831203138811080024
:1003A800F000701CD829D929DD29831203130816F7
:1003B800E029831203130812F01CE329E429E62933
:1003C8008816E7298812701DEA29EB29ED290817F4
:1003D800EE290813F01DF129F229F4298817F529C7
:1003E80088130800831603178801890183160313ED
:1003F80086018801831203138601880106300A12D8
:100408008A1197210A128A110A128A11B9230A122B
:100418008A11831603138710831203138714831614
:1004280003130711831203130715F001F101F201F9
:1004380020300A128A11A4210A128A110800F40035
:1004480074080F39F2007408F039F30083120313AB
:1004580008157308F10004300310F10CFF3E031D6A
:10046800302A71080A128A11D4210A128A118312B9
:10047800031388151A30F100F10B402A000083128B
:100488000313881172080A128A11D4210A128A11D8
:100498008312031388151A30F100F10B512A00005A
:1004A80083120313881108007808790403195D2A58
:1004B8005E2A8D2AFD01FD0A6C2A01300310F80D11
:1004C800F90DFF3E031D622A0130FC007C08FD0780
:1004D800F91F6F2A702A612A79087B02031D762A80
:1004E80078087A02031C792A7A2A802A7808FA027C
:1004F8007908031CFB03FB0201300310F90CF80C0C
:10050800FF3E031D812A0130FD02031D8C2A8D2A1E
:10051800702A7B08F9007A08F8000800FA01FB0144
:10052800B72A7A087507F8007608F7000318F70A5B
:10053800FA1F9F2AF7037708F90079088312031333
:10054800FF00780884000A128A1103200A128A110F
:100558000A128A1123220A128A110130FA07031893
:10056800FB0A0030FB077A087507F8007608F700E1
:100578000318F70AFA1FC12AF7037708F900790860
:1005880083120313FF00780884000A128A110320DB
:100598000A128A11003A031DD22AD32A952A080082
:1005A800F501F601700871040319DB2ADC2A132B04
:1005B800F701F70AEA2A01300310F00DF10DFF3EAA
:1005C800031DE02A0130F4007408F707F11FED2A33
:1005D800EE2ADF2A01300310F50DF60DFF3E031D4C
:1005E800EF2A71087302031DFB2A70087202031CAC
:1005F800FE2AFF2A062B7008F2027108031CF30377
:10060800F302751401300310F10CF00CFF3E031DCA
:10061800072B0130F702031D122B132BEE2A760845
:10062800F1007508F0000800F6007603031D1D2B85
:100638001E2B3B2B74087F3EF9007908F500043027
:100648000310F50CFF3E031D242B7508F7007908ED
:100658000F39F80077080A128A11BA210A128A118A
:1006680078080A128A11BA210A128A115D2B0230FF
:100678007606031D402B412B5D2B7408BF3EF90005
:100688007908F50004300310F50CFF3E031D472BD5
:100698007508F70079080F39F80077080A128A11E7
:1006A800BA210A128A1178080A128A11BA210A1282
:1006B8008A11080083120313A101FC1F642B652B08
:1006C8006C2BFB09FC09FB0A0319FC0AA101A10A0E
:1006D800FA1F6F2B702B752BF909FA09F90A031900
:1006E800FA0A79087A0403197A2B7B2BAA2BA00122
:1006F800A00A892B01300310F90DFA0DFF3E031DE6
:100708007F2B0130FD007D08A007FA1F8C2B8D2B55
:100718007E2B7A087C02031D932B79087B02031C2D
:10072800962B972B9D2B7908FB027A08031CFC0358
:10073800FC0201300310FA0CF90CFF3E031D9E2B3E
:100748000130A002031DA92BAA2B8D2B2108031908
:10075800AE2BAF2BB42BFB09FC09FB0A0319FC0ACF
:100768007C08FA007B08F900080000300A128A1198
:10077800D4210A128A113430F500F130F400F40B58
:10078800C32BF50BC32BC82B03300A128A11BA21CD
:100798000A128A110D30F500FB30F400F40BD22B4D
:1007A800F50BD22BD72B03300A128A11BA210A1261
:1007B8008A111D30F5009130F400F40BE12BF50B94
:1007C800E12B03300A128A11BA210A128A11023067
:1007D8000A128A11BA210A128A1102300A128A11DF
:1007E800BA210A128A1108300A128A11BA210A1289
:1007F8008A1100300A128A11BA210A128A110C30A1
:100808000A128A11BA210A128A1100300A128A11B0
:10081800BA210A128A1106300A128A11BA210A125A
:100828008A110800F601F11F1A2C1B2C222CF00942
:10083800F109F00A0319F10AF601F60AF31F252C4B
:10084800262C2F2CF209F309F20A0319F30A0130B6
:10085800F4007408F606F701F8017008710403192A
:10086800362C372C6E2CF501F50A452C0130031077
:10087800F00DF10DFF3E031D3B2C0130F400740810
:10088800F507F11F482C492C3A2C01300310F70DBD
:10089800F80DFF3E031D4A2C71087302031D562CE8
:1008A80070087202031C592C5A2C612C7008F20231
:1008B8007108031CF303F302771401300310F10CE1
:1008C800F00CFF3E031D622C0130F502031D6D2C58
:1008D8006E2C492C76080319722C732C782CF70986
:1008E800F809F70A0319F80A7808F1007708F00000
:1008F800080083120313AB002130A700292D2530EF
:100908002C060319882C892C932C2B0884002C087E
:10091800831380000130A3002308AB07292DA6010B
:100928009A2CC030A3002308A604B42C0130A007D9
:10093800FF30200784000A128A110D200A128A113A
:10094800AC00A300A4012408003A0319AC2C292DFB
:100958002308003A0319392D753A0319952C292DC6
:100968002708840083130008A800840A0008A90047
:100978000230A3002308A707AC01AC0A2C08A30087
:100988002307013E84000A128A110D200A128A11D7
:10099800A4000A128A110D200A128A11A50025083E
:1009A8002902031DD92C240828020318DC2CDD2C6D
:1009B800DE2CE82C0130A3002308AC0705302C06F8
:1009C800031DE72CE82CC22C2C08AA00202D0A3085
:1009D800F8000030F9002A08A3002307013E84002C
:1009E8000A128A110D200A128A11F0000A128A11BD
:1009F8000D200A128A11F1002908F3002808F200D4
:100A08000A128A11D4220A128A117108FB0070088E
:100A1800FA000A128A1158220A128A117808303EFE
:100A280083120313AC002B0884002C088313800066
:100A38000130A3002308AB07FF30A3002308AA074F
:100A48002A0A031D282D292DEB2C0130A007FF3081
:100A5800200784000A128A110D200A128A11AC009C
:100A68002C08031D382D392D832C2B088400831363
:100A7800800108000A128A11F6210A128A110A1244
:100A88008A118A210A128A11F401F40A01300A1221
:100A98008A1118230A128A110B30F5008030F600EB
:100AA8000A128A1192220A128A110730F4000130C0
:100AB8000A128A1118230A128A110F30F5008030A1
:100AC800F6000A128A1192220A128A110D30F400D5
:100AD80001300A128A1118230A128A111330F500FC
:100AE8008030F6000A128A1192220A128A118312A1
:100AF80003138710C73083120313AD00832DAD0B8A
:100B0800822D862D8312031357080A128A11742125
:100B18000A128A110A128A1181210A128A11831271
:100B28000313D400C73083120313AD009B2DAD0B04
:100B38009A2D9E2D8312031387146430F000003021
:100B4800F1005408AD00AE012D08F2002E08F300A4
:100B58000A128A1116240A128A11700883120313C2
:100B6800CC000A30F9000030FA000A30F0000030FA
:100B7800F1005408AD00AE012D08F2002E08F30074
:100B88000A128A1116240A128A117108FC007008C8
:100B9800FB000A128A115E230A128A11790883124D
:100BA8000313CB000A30F9000030FA005408AD00F6
:100BB800AE012D08FB002E08FC000A128A115E23E4
:100BC8000A128A11790883120313CA001730A00089
:100BD8004C08AD00AE012D08A1002E08A2002F3050
:100BE8000A128A117D240A128A11F401F40A0230C9
:100BF8000A128A1118230A128A112F30F5000030C0
:100C0800F6000A128A1192220A128A1117308312E8
:100C18000313A0004B08AD00AE012D08A1002E085B
:100C2800A2002F300A128A117D240A128A1102307A
:100C3800F40002300A128A1118230A128A112F307E
:100C4800F5000030F6000A128A1192220A128A115F
:100C5800173083120313A0004A08AD00AE012D0817
:100C6800A1002E08A2002F300A128A117D240A1230
:100C78008A110330F40002300A128A1118230A126A
:100C88008A112F30F5000030F6000A128A119222DC
:100C98000A128A11831203130711C7308312031330
:100CA800AD00562EAD0B552E592E8312031357083F
:100CB8000A128A1174210A128A110A128A118121D0
:100CC8000A128A1183120313D30041305306031DFD
:100CD8006E2E6F2E7D2E57080A128A1174210A1261
:100CE8008A110A128A1181210A128A1183120313A6
:100CF800D50043305306031D822E832E912E5708AC
:100D08000A128A1174210A128A110A128A1181217F
:100D18000A128A1183120313D600C73083120313F1
:100D2800AD00962EAD0B952E992E83120313071541
:100D38006430F0000030F1005508AD00AE012D0818
:100D4800F2002E08F3000A128A1116240A128A11D8
:100D5800700883120313CF000A30F9000030FA003C
:100D68000A30F0000030F1005508AD00AE012D0842
:100D7800F2002E08F3000A128A1116240A128A11A8
:100D88007108FC007008FB000A128A115E230A121F
:100D98008A11790883120313CE000A30F900003053
:100DA800FA005508AD00AE012D08FB002E08FC0026
:100DB8000A128A115E230A128A1179088312031310
:100DC800CD001730A0004F08AD00AE012D08A100DE
:100DD8002E08A20038300A128A117D240A128A11BC
:100DE8000730F40002300A128A1118230A128A11F5
:100DF8003830F5000030F6000A128A1192220A12E1
:100E08008A11173083120313A0004E08AD00AE01FB
:100E18002D08A1002E08A20038300A128A117D245C
:100E28000A128A110830F40002300A128A111823B3
:100E38000A128A113830F5000030F6000A128A11B9
:100E480092220A128A11173083120313A0004D0848
:100E5800AD00AE012D08A1002E08A20038300A12FC
:100E68008A117D240A128A110930F40002300A120C
:100E78008A1118230A128A113830F5000030F6005A
:100E88000A128A1192220A128A116430F000003084
:100E9800F100831203135608AD00AE012D08F200CD
:100EA8002E08F3000A128A1116240A128A117008F1
:100EB80083120313D2000A30F9000030FA000A3016
:100EC800F0000030F1005608AD00AE012D08F20028
:100ED8002E08F3000A128A1116240A128A117108C0
:100EE800FC007008FB000A128A115E230A128A119C
:100EF800790883120313D1000A30F9000030FA0090
:100F08005608AD00AE012D08FB002E08FC000A12A1
:100F18008A115E230A128A11790883120313D000FA
:100F28001730A0005208AD00AE012D08A1002E0810
:100F3800A20041300A128A117D240A128A110D304A
:100F4800F40002300A128A1118230A128A11413059
:100F5800F5000030F6000A128A1192220A128A114C
:100F6800173083120313A0005108AD00AE012D08FD
:100F7800A1002E08A20041300A128A117D240A120B
:100F88008A110E30F40002300A128A1118230A124C
:100F98008A114130F5000030F6000A128A119222B7
:100FA8000A128A11173083120313A0005008AD00EB
:100FB800AE012D08A1002E08A20041300A128A11A4
:100FC8007D240A128A110F30F40002300A128A11A5
:100FD80018230A128A114130F5000030F6000A126F
:100FE8008A1192220A128A117B2D0A128A1100286C
:080FF80083010A128A113E2D4B
:08400000FF3FFF3FFF3FFF3FC0
:04400E00D420FF3F7C
:00000001FF
