:100000000A128A11FC2FFF1B0D2883137F188317F8
:100010000008840A0319FF0A080000308A00040857
:10002000840A82070034013400340A340034643412
:100030000034E834033410342734533431343A3440
:100040000034533432343A340034533433343A3491
:0800500000342534753400343E
:10064400F000700883120313930008008316031349
:10065400141C2D2B2E2B282B08000A128A11282358
:100664000A128A11831203131308080000300A12B5
:100674008A1168230A128A1101300A128A11682326
:100684000A128A110800F1007108F000F00E8316B6
:1006940003130F0870068F3970068F000F140800BB
:1006A400F300831603138712731D592B5A2B5E2BE9
:1006B400720894008715622B7008720494008711E5
:1006C400730871048312031394000800F300831267
:1006D4000313081173080A128A1182230A128A1159
:1006E4008312031388150B30F2006230F100F10B12
:1006F400792BF20B792B0000831203138811080065
:10070400F000701C862B872B8B2B83120313081687
:100714008E2B831203130812F01C912B922B942B13
:100724008816952B8812701D982B992B9B2B0817D4
:100734009C2B0813F01D9F2BA02BA22B8817A32BF7
:10074400881308008316031788018901831603138D
:1007540086018801831203138601880106300A1278
:100764008A1145230A128A110A128A1161250A1272
:100774008A11831603130711831203130715F0015B
:10078400F101F20120300A128A1152230A128A114D
:100794000800F40074080F39F2007408F039F3000B
:1007A4008312031308157308F10004300310F10CCD
:1007B400FF3E031DD82B71080A128A1182230A12E4
:1007C4008A118312031388151A30F100F10BE82BF8
:1007D400000083120313881172080A128A118223FB
:1007E4000A128A118312031388151A30F100F10BCF
:1007F400F92B000083120313881108007808790488
:100804000319052C062C352CFD01FD0A142C01308E
:100814000310F80DF90DFF3E031D0A2C0130FC00F6
:100824007C08FD07F91F172C182C092C79087B026A
:10083400031D1E2C78087A02031C212C222C282C40
:100844007808FA027908031CFB03FB020130031049
:10085400F90CF80CFF3E031D292C0130FD02031D89
:10086400342C352C182C7B08F9007A08F800080081
:10087400FA01FB015F2C7A087507F8007608F70087
:100884000318F70AFA1F472CF7037708F9007908C9
:1008940083120313FF00780884000A128A110320CC
:1008A4000A128A110A128A11CB230A128A11013000
:1008B400FA070318FB0A0030FB077A087507F800EB
:1008C4007608F7000318F70AFA1F692CF70377086C
:1008D400F900790883120313FF00780884000A12D0
:1008E4008A1103200A128A11003A031D7A2C7B2CE8
:1008F4003D2C0800F501F601700871040319832CDE
:10090400842CBB2CF701F70A922C01300310F00D54
:10091400F10DFF3E031D882C0130F4007408F70725
:10092400F11F952C962C872C01300310F50DF60D34
:10093400FF3E031D972C71087302031DA32C70083E
:100944007202031CA62CA72CAE2C7008F2027108AC
:10095400031CF303F302751401300310F10CF00CC3
:10096400FF3E031DAF2C0130F702031DBA2CBB2C34
:10097400962C7608F1007508F0000800F60076035E
:10098400031DC52CC62CE32C74087F3EF90079089E
:10099400F50004300310F50CFF3E031DCC2C750844
:1009A400F70079080F39F80077080A128A116823CA
:1009B4000A128A1178080A128A1168230A128A1103
:1009C400052D02307606031DE82CE92C052D74084C
:1009D400BF3EF9007908F50004300310F50CFF3E22
:1009E400031DEF2C7508F70079080F39F800770814
:1009F4000A128A1168230A128A1178080A128A11C3
:100A040068230A128A11080083120313A101FC1F30
:100A14000C2D0D2D142DFB09FC09FB0A0319FC0AEE
:100A2400A101A10AFA1F172D182D1D2DF909FA0984
:100A3400F90A0319FA0A79087A040319222D232DD5
:100A4400522DA001A00A312D01300310F90DFA0D29
:100A5400FF3E031D272D0130FD007D08A007FA1F6E
:100A6400342D352D262D7A087C02031D3B2D790863
:100A74007B02031C3E2D3F2D452D7908FB027A088D
:100A8400031CFC03FC0201300310FA0CF90CFF3EBA
:100A9400031D462D0130A002031D512D522D352D6D
:100AA40021080319562D572D5C2DFB09FC09FB0A5F
:100AB4000319FC0A7C08FA007B08F90008000030DE
:100AC4000A128A1182230A128A113430F500F13095
:100AD400F400F40B6B2DF50B6B2D702D03300A1203
:100AE4008A1168230A128A110D30F500FB30F400D4
:100AF400F40B7A2DF50B7A2D7F2D03300A128A110F
:100B040068230A128A111D30F5009130F400F40BA9
:100B1400892DF50B892D03300A128A1168230A12D4
:100B24008A1102300A128A1168230A128A110230C9
:100B34000A128A1168230A128A1108300A128A11C9
:100B440068230A128A1100300A128A1168230A12D1
:100B54008A110C300A128A1168230A128A11003091
:100B64000A128A1168230A128A1106300A128A119B
:100B740068230A128A110800F601F11FC22DC32D41
:100B8400CA2DF009F109F00A0319F10AF601F60A6F
:100B9400F31FCD2DCE2DD72DF209F309F20A031937
:100BA400F30A0130F4007408F606F701F80170083E
:100BB40071040319DE2DDF2D162EF501F50AED2D36
:100BC40001300310F00DF10DFF3E031DE32D013044
:100BD400F4007408F507F11FF02DF12DE22D01301A
:100BE4000310F70DF80DFF3E031DF22D710873027B
:100BF400031DFE2D70087202031C012E022E092E05
:100C04007008F2027108031CF303F3027714013035
:100C14000310F10CF00CFF3E031D0A2E0130F50207
:100C2400031D152E162EF12D760803191A2E1B2ED0
:100C3400202EF709F809F70A0319F80A7808F100D1
:100C44007708F000080083120313AB002130A700DB
:100C5400D12E25302C060319302E312E3B2E2B0895
:100C640084002C08831380000130A3002308AB0701
:100C7400D12EA601422EC030A3002308A6045C2E68
:100C84000130A007FF30200784000A128A110D20CA
:100C94000A128A11AC00A300A4012408003A031923
:100CA400542ED12E2308003A0319E12E753A031964
:100CB4003D2ED12E2708840083130008A800840A3F
:100CC4000008A9000230A3002308A707AC01AC0A5E
:100CD4002C08A3002307013E84000A128A110D2068
:100CE4000A128A11A4000A128A110D200A128A110A
:100CF400A50025082902031D812E240828020318B3
:100D0400842E852E862E902E0130A3002308AC0756
:100D140005302C06031D8F2E902E6A2E2C08AA0057
:100D2400C82E0A30F8000030F9002A08A30023076F
:100D3400013E84000A128A110D200A128A11F00061
:100D44000A128A110D200A128A11F1002908F300EF
:100D54002808F2000A128A117C240A128A117108E6
:100D6400FB007008FA000A128A1100240A128A1180
:100D74007808303E83120313AC002B0884002C083F
:100D8400831380000130A3002308AB07FF30A300C6
:100D94002308AA072A0A031DD02ED12E932E013030
:100DA400A007FF30200784000A128A110D200A12BE
:100DB4008A11AC002C08031DE02EE12E2B2E2B08EB
:100DC40084008313800108000A128A11A4230A12E2
:100DD4008A110A128A1138230A128A11F401F40AB8
:100DE40001300A128A11C0240A128A110B30F5004C
:100DF4008030F6000A128A113A240A128A11073046
:100E0400F40001300A128A11C0240A128A110F3028
:100E1400F5008030F6000A128A113A240A128A1167
:100E24000D30F40001300A128A11C0240A128A110A
:100E34001330F5008030F6000A128A113A240A129F
:100E44008A11831203130711C73083120313AD00F1
:100E54002B2FAD0B2A2F2E2F8312031308080A12EF
:100E64008A1122230A128A110A128A112F230A12C2
:100E74008A1183120313BB003B088600C730831218
:100E84000313AD00452FAD0B442F482F83120313DA
:100E940007156430F0000030F1003B08AD00AE01EE
:100EA4002D08F2002E08F3000A128A11BE250A1238
:100EB4008A11700883120313BA000A30F900003053
:100EC400FA000A30F0000030F1003B08AD00AE013A
:100ED4002D08F2002E08F3000A128A11BE250A1208
:100EE4008A117108FC007008FB000A128A11062599
:100EF4000A128A11790883120313B9000A30F9001F
:100F04000030FA003B08AD00AE012D08FB002E08AE
:100F1400FC000A128A1106250A128A117908831222
:100F24000313B8001730A0003A08AD00AE012D0835
:100F3400A1002E08A2002F300A128A1125260A12B7
:100F44008A11F401F40A02300A128A11C0240A1226
:100F54008A112F30F5000030F6000A128A113A2463
:100F64000A128A11173083120313A0003908AD0046
:100F7400AE012D08A1002E08A2002F300A128A11FA
:100F840025260A128A110230F40002300A128A114C
:100F9400C0240A128A112F30F5000030F6000A121C
:100FA4008A113A240A128A11173083120313A000FB
:100FB4003808AD00AE012D08A1002E08A2002F3084
:100FC4000A128A1125260A128A110330F40002300B
:100FD4000A128A11C0240A128A112F30F500003037
:100FE400F6000A128A113A240A128A11232F0A12CD
:0C0FF4008A11002883010A128A11E62EDF
:08400000FF3FFF3FFF3FFF3FC0
:04400E00D420FF3F7C
:00000001FF
