:100000000A128A11FC2FFF1B0D2883137F188317F8
:100010000008840A0319FF0A080000308A00040857
:10002000840A82070034013400340A340034643412
:100030000034E834033410342734533431343A3440
:100040000034533432343A340034533433343A3491
:0800500000342534753400343E
:10048E00F000700883120313930008008316031301
:10049E00141C522A532A4D2A08000A128A114D2280
:1004AE000A128A11831203131308080000300A126D
:1004BE008A118D220A128A1101300A128A118D2296
:1004CE000A128A110800F1007108F000F00E83166E
:1004DE0003130F0870068F3970068F000F14080073
:1004EE00F300831603138712731D7E2A7F2A832A35
:1004FE00720894008715872A700872049400871179
:10050E00730871048312031394000800F30083121E
:10051E000313081173080A128A11A7220A128A11EC
:10052E008312031388150B30F2006230F100F10BC9
:10053E009E2AF20B9E2A00008312031388110800D4
:10054E00F000701CAB2AAC2AB02A831203130816D3
:10055E00B32A831203130812F01CB62AB72AB92A3B
:10056E008816BA2A8812701DBD2ABE2AC02A0817FC
:10057E00C12A0813F01DC42AC52AC72A8817C82AFB
:10058E008813080083160317880189018316031345
:10059E0086018801831203138601880106300A1230
:1005AE008A116A220A128A110A128A118C240A12DC
:1005BE008A1183160313871083120313871483166D
:1005CE0003130711831203130715F001F101F20152
:1005DE0020300A128A1177220A128A110800F400BA
:1005EE0074080F39F2007408F039F3008312031304
:1005FE0008157308F10004300310F10CFF3E031DC3
:10060E00032B71080A128A11A7220A128A11831269
:10061E00031388151A30F100F10B132B000083120F
:10062E000313881172080A128A11A7220A128A115C
:10063E008312031388151A30F100F10B242B0000DE
:10064E008312031388110800780879040319302BDC
:10065E00312B602BFD01FD0A3F2B01300310F80DED
:10066E00F90DFF3E031D352B0130FC007C08FD0704
:10067E00F91F422B432B342B79087B02031D492B88
:10068E0078087A02031C4C2B4D2B532B7808FA0258
:10069E007908031CFB03FB0201300310F90CF80C64
:1006AE00FF3E031D542B0130FD02031D5F2B602BFB
:1006BE00432B7B08F9007A08F8000800FA01FB01C9
:1006CE008A2B7A087507F8007608F7000318F70AE0
:1006DE00FA1F722BF7037708F900790883120313B8
:1006EE00FF00780884000A128A1103200A128A1168
:1006FE000A128A11F6220A128A110130FA07031819
:10070E00FB0A0030FB077A087507F8007608F70039
:10071E000318F70AFA1F942BF7037708F9007908E4
:10072E0083120313FF00780884000A128A11032033
:10073E000A128A11003A031DA52BA62B682B08005E
:10074E00F501F601700871040319AE2BAF2BE62BE1
:10075E00F701F70ABD2B01300310F00DF10DFF3E2E
:10076E00031DB32B0130F4007408F707F11FC02BE3
:10077E00C12BB22B01300310F50DF60DFF3E031DFC
:10078E00C22B71087302031DCE2B70087202031C5C
:10079E00D12BD22BD92B7008F2027108031CF30354
:1007AE00F302751401300310F10CF00CFF3E031D23
:1007BE00DA2B0130F702031DE52BE62BC12B760851
:1007CE00F1007508F0000800F6007603031DF02B0B
:1007DE00F12B0E2C74087F3EF9007908F5000430D9
:1007EE000310F50CFF3E031DF72B7508F700790873
:1007FE000F39F80077080A128A118D220A128A110F
:10080E0078080A128A118D220A128A11302C0230AF
:10081E007606031D132C142C302C7408BF3EF900E1
:10082E007908F50004300310F50CFF3E031D1A2C59
:10083E007508F70079080F39F80077080A128A113F
:10084E008D220A128A1178080A128A118D220A1232
:10085E008A11080083120313A101FC1F372C382CB8
:10086E003F2CFB09FC09FB0A0319FC0AA101A10A92
:10087E00FA1F422C432C482CF909FA09F90A0319DC
:10088E00FA0A79087A0403194D2C4E2C7D2CA001FE
:10089E00A00A5C2C01300310F90DFA0DFF3E031D6A
:1008AE00522C0130FD007D08A007FA1F5F2C602C32
:1008BE00512C7A087C02031D662C79087B02031CDE
:1008CE00692C6A2C702C7908FB027A08031CFC0335
:1008DE00FC0201300310FA0CF90CFF3E031D712CC3
:1008EE000130A002031D7C2C7D2C602C21080319E5
:1008FE00812C822C872CFB09FC09FB0A0319FC0AAC
:10090E007C08FA007B08F900080000300A128A11F0
:10091E00A7220A128A113430F500F130F400F40BDC
:10092E00962CF50B962C9B2C03300A128A118D22D5
:10093E000A128A110D30F500FB30F400F40BA52CD1
:10094E00F50BA52CAA2C03300A128A118D220A123D
:10095E008A111D30F5009130F400F40BB42CF50B18
:10096E00B42C03300A128A118D220A128A11023017
:10097E000A128A118D220A128A1102300A128A1163
:10098E008D220A128A1108300A128A118D220A1239
:10099E008A1100300A128A118D220A128A110C3025
:1009AE000A128A118D220A128A1100300A128A1135
:1009BE008D220A128A1106300A128A118D220A120B
:1009CE008A110800F601F11FED2CEE2CF52CF00922
:1009DE00F109F00A0319F10AF601F60AF31FF82CD1
:1009EE00F92C022DF209F309F20A0319F30A013068
:1009FE00F4007408F606F701F80170087104031983
:100A0E00092D0A2D412DF501F50A182D013003107F
:100A1E00F00DF10DFF3E031D0E2D0130F400740894
:100A2E00F507F11F1B2D1C2D0D2D01300310F70D99
:100A3E00F80DFF3E031D1D2D71087302031D292D98
:100A4E0070087202031C2C2D2D2D342D7008F2020D
:100A5E007108031CF303F302771401300310F10C39
:100A6E00F00CFF3E031D352D0130F502031D402D08
:100A7E00412D1C2D76080319452D462D4B2DF709BA
:100A8E00F809F70A0319F80A7808F1007708F00058
:100A9E00080083120313AB002130A700FC2D253074
:100AAE002C0603195B2D5C2D662D2B0884002C085B
:100ABE00831380000130A3002308AB07FC2DA60191
:100ACE006D2DC030A3002308A604872D0130A0078A
:100ADE00FF30200784000A128A110D200A128A1193
:100AEE00AC00A300A4012408003A03197F2DFC2DAD
:100AFE002308003A03190C2E753A0319682DFC2DA4
:100B0E002708840083130008A800840A0008A9009F
:100B1E000230A3002308A707AC01AC0A2C08A300DF
:100B2E002307013E84000A128A110D200A128A112F
:100B3E00A4000A128A110D200A128A11A500250896
:100B4E002902031DAC2D240828020318AF2DB02D49
:100B5E00B12DBB2D0130A3002308AC0705302C06A8
:100B6E00031DBA2DBB2D952D2C08AA00F32D0A308E
:100B7E00F8000030F9002A08A3002307013E840084
:100B8E000A128A110D200A128A11F0000A128A1115
:100B9E000D200A128A11F1002908F3002808F2002C
:100BAE000A128A11A7230A128A117108FB00700813
:100BBE00FA000A128A112B230A128A117808303E83
:100BCE0083120313AC002B0884002C0883138000BF
:100BDE000130A3002308AB07FF30A3002308AA07A8
:100BEE002A0A031DFB2DFC2DBE2D0130A007FF3060
:100BFE00200784000A128A110D200A128A11AC00F5
:100C0E002C08031D0B2E0C2E562D2B08840083133F
:100C1E00800108000A128A11C9220A128A110A12C8
:100C2E008A115D220A128A11F401F40A01300A12A5
:100C3E008A11EB230A128A110B30F5008030F60070
:100C4E000A128A1165230A128A110730F400013044
:100C5E000A128A11EB230A128A110F30F500803026
:100C6E00F6000A128A1165230A128A110D30F40059
:100C7E0001300A128A11EB230A128A111330F50081
:100C8E008030F6000A128A1165230A128A11831225
:100C9E0003138710C73083120313AD00562EAD0B0E
:100CAE00552E592E8312031308080A128A11472251
:100CBE000A128A110A128A1154220A128A118312F6
:100CCE000313C70047088600C73083120313AD0015
:100CDE00702EAD0B6F2E732E831203138714643098
:100CEE00F0000030F1004708AD00AE012D08F20013
:100CFE002E08F3000A128A11E9240A128A117008CA
:100D0E0083120313C3000A30F9000030FA000A30D0
:100D1E00F0000030F1004708AD00AE012D08F200E2
:100D2E002E08F3000A128A11E9240A128A11710898
:100D3E00FC007008FB000A128A1131240A128A1173
:100D4E00790883120313C2000A30F9000030FA004A
:100D5E004708AD00AE012D08FB002E08FC000A125C
:100D6E008A1131240A128A11790883120313C100E1
:100D7E001730A0004308AD00AE012D08A1002E08CB
:100D8E00A2002F300A128A1150250A128A11F4017C
:100D9E00F40A02300A128A11EB230A128A112F303A
:100DAE00F5000030F6000A128A1165230A128A1124
:100DBE00173083120313A0004208AD00AE012D08B8
:100DCE00A1002E08A2002F300A128A1150250A12F5
:100DDE008A110230F40002300A128A11EB230A1231
:100DEE008A112F30F5000030F6000A128A116523A1
:100DFE000A128A11173083120313A0004108AD00A6
:100E0E00AE012D08A1002E08A2002F300A128A1161
:100E1E0050250A128A110330F40002300A128A1188
:100E2E00EB230A128A112F30F5000030F6000A1259
:100E3E008A1165230A128A11831203130711C73010
:100E4E0083120313AD002B2FAD0B2A2F2E2F8312DF
:100E5E00031308080A128A1147220A128A110A126B
:100E6E008A1154220A128A1183120313C8004808E9
:100E7E008600C73083120313AD00452FAD0B442FF0
:100E8E00482F8312031307156430F0000030F10071
:100E9E004808AD00AE012D08F2002E08F3000A122C
:100EAE008A11E9240A128A11700883120313C600EC
:100EBE000A30F9000030FA000A30F0000030F1007C
:100ECE004808AD00AE012D08F2002E08F3000A12FC
:100EDE008A11E9240A128A117108FC007008FB00BD
:100EEE000A128A1131240A128A1179088312031305
:100EFE00C5000A30F9000030FA004808AD00AE0116
:100F0E002D08FB002E08FC000A128A1131240A1249
:100F1E008A11790883120313C4001730A000460803
:100F2E00AD00AE012D08A1002E08A20038300A1225
:100F3E008A1150250A128A110730F40002300A1263
:100F4E008A11EB230A128A113830F5000030F600B0
:100F5E000A128A1165230A128A111730831203139B
:100F6E00A0004508AD00AE012D08A1002E08A2007C
:100F7E0038300A128A1150250A128A110830F400EC
:100F8E0002300A128A11EB230A128A113830F50048
:100F9E000030F6000A128A1165230A128A111730E0
:100FAE0083120313A0004408AD00AE012D08A1006A
:100FBE002E08A20038300A128A1150250A128A1100
:100FCE000930F40002300A128A11EB230A128A1138
:100FDE003830F5000030F6000A128A1165230A1225
:100FEE008A114E2E0A128A11002883010A128A11C2
:020FFE00112EB2
:08400000FF3FFF3FFF3FFF3FC0
:04400E00D420FF3F7C
:00000001FF
