:060000000A128A110C280F
:10000800FE00030EF1000A08F2000A128A11A9285C
:100018000A128A110F28F70183010A128A11DD28B2
:10002800F5007508031D19281A283328C3308312D0
:1000380003139F052130F300F30B202883120313C9
:100048009F149F182828292825280C130D30F40000
:10005800FB30F300F30B2E28F40B2E2833287503FE
:10006800031D372838285328831203131F08C33960
:1000780004389F002130F300F30B40288312031348
:100088009F149F184828492845280C130D30F40060
:10009800FB30F300F30B4E28F40B4E2853280800CE
:1000A800F4007408031D59285A286028831603137E
:1000B80005148316031708147403031D64286528A0
:1000C8006B28831603138514831603178814831269
:1000D80003131F179F13831603131F129F129F13D7
:1000E800831203131F119F111F129F121F14213017
:1000F800F300F30B7D280800831603178801890194
:10010800831603138601880183120313860188016D
:100118008B170B178C11831603138C158516063055
:100128000A128A11EC200A128A1100300A128A1166
:1001380054200A128A11F301F401F50124300A123D
:100148008A11C7200A128A110800831203138C1D12
:10015800AE28AF28C0280A128A11F9200A128A117B
:10016800F700831203131E080A128A1109210A12C2
:100178008A11831203138C1172088A00710E83008E
:10018800FE0E7E0E0900F600831603138712761DF5
:10019800CE28CF28D328750894008715D728730848
:1001A800750494008711760874048312031394006D
:1001B80008000A128A1180200A128A1100300A12D5
:1001C8008A1114200A128A11E2280A128A110C28AC
:1001D800F4007408F300F30E831603130F08730674
:1001E8008F3973068F000F1408000A128A11022132
:1001F8000A128A11831203131308080083160313C3
:10020800141C0729082902290800F0007008831225
:060218000313930008002F
:08400000FF3FFF3FFF3FFF3FC0
:04400E00D420FF3F7C
:00000001FF
