:060000000A128A110C280F
:10000800FE00030EF8000A08F9000A128A111828DF
:100018000A128A110F28F001F101F201F301F4012B
:1000280083010A128A118D29831203138C1D1D283E
:100038001E28482870087104031D232824284828EE
:100048000A128A11B3210A128A11F40041300A12E5
:100058008A11C3210A128A11C730F6003328F60B19
:100068003228362837280A128A11B3210A128A112F
:10007800F400831203131E080A128A11C3210A12FC
:100088008A11831203138C118C1D4B284C28762857
:1000980070037104031D5128522876280A128A1108
:1000A800B3210A128A11F40043300A128A11C321BB
:1000B8000A128A11C730F6006128F60B60286428F6
:1000C80065280A128A11B3210A128A11F4007208EB
:1000D8000A128A11C3210A128A11F001F10183124E
:1000E80003138C110B1C79287A28B62806187D284A
:1000F8007E2898281A30F700F830F600F60B822888
:10010800F70B822800008312031306188C288D2809
:10011800B5280130F2070318F30A0030F30701305D
:10012800F0000030F100B52886189B289C28B528D7
:100138001A30F700F830F600F60BA028F70BA028C5
:100148000000831203138618AA28AB28B528FF30AD
:10015800F2070318F30AFF30F3070130F00000300C
:10016800F1000B1079088A00780E8300FE0E7E0ECF
:10017800090083120313A2002208031DC428C528FE
:10018800E028C3309F05203083120313A000A00B82
:10019800CB280000831203139F149F18D428D52856
:1001A800D1280C130D3083120313A100FB30A000DB
:1001B800A00BDC28A10BDC28831203132203031DE8
:1001C800E628E72804291F08C33904389F0020308F
:1001D80083120313A000A00BEF280000831203135F
:1001E8009F149F18F828F928F5280C130D3083124E
:1001F8000313A100FB30A000A00B0029A10B0029CC
:100208000800831603178801890103308316031336
:10021800860088018312031386018801831603135D
:10022800811315149514033096008B170B178B1533
:100238000B10831203138C11831603138C15851668
:1002480006300A128A11A0210A128A1100300A12F5
:100258008A113C210A128A1183120313A001A101F9
:10026800A20124300A128A116F210A128A11080089
:1002780083120313A1002108031D432944294A2995
:100288008316031305148316031708148312031324
:100298002103031D50295129572983160313851457
:1002A800831603178814831203131F179F138316CB
:1002B80003131F129F129F13831203131F119F1101
:1002C8001F129F121F14203083120313A000A00BCB
:1002D8006B290000080083120313A300831603137D
:1002E800871283120313231D7A297B298129220867
:1002F8008316031394008715872920082204831680
:100308000313940087118312031323082104940014
:1003180008000A128A1105210A128A1100300A12ED
:100328008A11BD200A128A117208831203138800E9
:1003380092290A128A110C2883120313A10021089A
:10034800A000A00E831603130F08831203132006C0
:100358008F392006831603138F000F1408000A1222
:100368008A11BC210A128A11831203131308080088
:1003780083160313141CC129C229BC290800F500DF
:0A03880075088312031393000800A8
:08400000FF3FFF3FFF3FFF3FC0
:04400E00D420FF3F7C
:00000001FF
