:060000000A128A110C280F
:10000800FE00030EF5000A08F6000A128A111A28E3
:100018000A128A110F28F701F801F9018312031354
:10002800A401A50183010A128A11D9298312031395
:100038008C1D1F282028502877087804031D2528A0
:100048002628502800300A128A110F210A128A1114
:100058000A128A1101220A128A11F90041300A1281
:100068008A1111220A128A11C730F3003B28F30BB8
:100078003A283E283F280A128A1101220A128A11B8
:10008800F900831203131E080A128A1111220A1298
:100098008A11831203138C118C1D5328542880282D
:1000A80077037804031D59285A2880280A128A11D0
:1000B80001220A128A11F90043300A128A11112208
:1000C8000A128A11C730F3006928F30B68286C28D4
:1000D8006D280A128A1101220A128A11F900831264
:1000E800031324080A128A1111220A128A11F7012D
:1000F800F801831203138C110B1C83288428C02851
:10010800061887288828A2281A30F400F830F30047
:10011800F30B8C28F40B8C280000831203130618A9
:1001280096289728BF280130A4070318A50A00308D
:10013800A5070130F7000030F800BF288618A52869
:10014800A628BF281A30F400F830F300F30BAA28C9
:10015800F40BAA280000831203138618B428B528C4
:10016800BF28FF30A4070318A50AFF30A5070130F0
:10017800F7000030F8000B1076088A00750E83002F
:10018800FE0E7E0E090083120313A2002208031D2F
:10019800CE28CF28EA28C3309F05203083120313C6
:1001A800A000A00BD5280000831203139F149F18EA
:1001B800DE28DF28DB280C130D3083120313A1007F
:1001C800FB30A000A00BE628A10BE628831203133E
:1001D8002203031DF028F1280E291F08C33904380B
:1001E8009F00203083120313A000A00BF928000001
:1001F800831203139F149F1802290329FF280C1345
:100208000D3083120313A100FB30A000A00B0A29B4
:10021800A10B0A290800F2007208031D14291529E8
:100228002E29C330831203139F052130F000F00BF1
:100238001B29831203139F149F182329242920297B
:100248000C130D30F100FB30F000F00B2929F10BF5
:1002580029292E297203031D322933294E29831295
:1002680003131F08C33904389F002130F000F00B36
:100278003B29831203139F149F18432944294029BB
:100288000C130D30F100FB30F000F00B4929F10B95
:1002980049294E290800831603178801890103306C
:1002A80083160313860088018901831203138601CC
:1002B80088018901831603138113151495140330DB
:1002C80096008B170B178B150B10831203138C11C9
:1002D800831603138C15851606300A128A11EE212F
:1002E8000A128A1100300A128A1188210A128A1108
:1002F80083120313A001A101A20124300A128A115A
:10030800BB210A128A11080083120313A1002108D5
:10031800031D8F2990299629831603130514831624
:1003280003170814831203132103031D9C299D2915
:10033800A3298316031385148316031788148312BD
:1003480003131F179F13831603131F129F129F1364
:10035800831203131F119F111F129F121F142030A5
:1003680083120313A000A00BB72900000800831212
:100378000313A30083160313871283120313231D89
:10038800C629C729CD292208831603139400871587
:10039800D32920082204831603139400871183129B
:1003A800031323082104940008000A128A114F211C
:1003B8000A128A1100300A128A11C7200A128A11F9
:1003C800831203131E08880024088900DE290A12F4
:1003D8008A110C2883120313A1002108A000A00E83
:1003E800831603130F088312031320068F39200680
:1003F800831603138F000F1408000A128A110A22A9
:100408000A128A11831203131308080083160313B0
:10041800141C0F2A102A0A2A0800F00070088312F8
:060428000313930008001D
:08400000FF3FFF3FFF3FFF3FC0
:04400E00D420FF3F7C
:00000001FF
