:060000000A128A110C280F
:10000800FE00030EF8000A08F9000A128A111828DF
:100018000A128A110F28F001F101F201F301F4012B
:1000280083010A128A114629831203138C1D1D2885
:100038001E282F280A128A116C210A128A11F4002C
:10004800831203131E080A128A117C210A128A11CC
:10005800831203138C110B1C322833286F280618BF
:100068003628372851281A30F700F830F600F60BF2
:100078003B28F70B3B28000083120313061845287A
:1000880046286E280130F2070318F30A0030F307F8
:100098000130F0000030F1006E28861854285528E9
:1000A8006E281A30F700F830F600F60B5928F70BCF
:1000B80059280000831203138618632864286E28C1
:1000C800FF30F2070318F30AFF30F3070130F0009E
:1000D8000030F1000B1079088A00780E8300FE0EBC
:1000E8007E0E090083120313A2002208031D7D2837
:1000F8007E289928C3309F05203083120313A0005F
:10010800A00B84280000831203139F149F188D28C6
:100118008E288A280C130D3083120313A100FB309C
:10012800A000A00B9528A10B952883120313220386
:10013800031D9F28A028BD281F08C33904389F0025
:10014800203083120313A000A00BA82800008312FC
:1001580003139F149F18B128B228AE280C130D3032
:1001680083120313A100FB30A000A00BB928A10B38
:10017800B9280800831603178801890103308316FC
:1001880003138600880183120313860188018316EE
:100198000313811315149514033096008B170B174E
:1001A8008B150B10831203138C11831603138C15F4
:1001B800851606300A128A1159210A128A1100304E
:1001C8000A128A11F5200A128A1183120313A00158
:1001D800A101A20124300A128A1128210A128A11C7
:1001E800080083120313A1002108031DFC28FD2821
:1001F800032983160313051483160317081483129F
:1002080003132103031D09290A291029831603133F
:100218008514831603178814831203131F179F135B
:10022800831603131F129F129F13831203131F11A8
:100238009F111F129F121F14203083120313A00056
:10024800A00B24290000080083120313A3008316BF
:100258000313871283120313231D332934293A29E0
:1002680022088316031394008715402920082204C6
:1002780083160313940087118312031323082104A0
:10028800940008000A128A11BE200A128A1100304E
:100298000A128A1176200A128A117208831203132D
:1002A80088004B290A128A110C2883120313A10013
:1002B8002108A000A00E831603130F08831203134E
:1002C80020068F392006831603138F000F140800A9
:1002D8000A128A1175210A128A118312031313084C
:1002E800080083160313141C7A297B297529080032
:0C02F800F5007508831203139300080042
:08400000FF3FFF3FFF3FFF3FC0
:04400E00D420FF3F7C
:00000001FF
