:060000000A128A110C280F
:10000800FE00030EF1000A08F2000A128A11A8285D
:100018000A128A110F2883010A128A11DC28F500B6
:100028007508031D182819283228C33083120313B2
:100038009F052130F300F30B1F28831203139F142D
:100048009F182728282824280C130D30F400FB308B
:10005800F300F30B2D28F40B2D2832287503031D0C
:10006800362837285228831203131F08C339043847
:100078009F002130F300F30B3F28831203139F14D2
:100088009F184728482844280C130D30F400FB30EB
:10009800F300F30B4D28F40B4D2852280800F40008
:1000A8007408031D582859285F288316031305145C
:1000B8008316031708147403031D632864286A2829
:1000C80083160313851483160317881483120313E6
:1000D8001F179F13831603131F129F129F13831258
:1000E80003131F119F111F129F121F142130F300B9
:1000F800F30B7C28080083160317880189018316EF
:1001080003138601880183120313860188018B1764
:100118000B178C11831603138C15851606300A12DB
:100128008A11EB200A128A1100300A128A11532010
:100138000A128A11F301F401F50124300A128A1116
:10014800C6200A128A110800831203138C1DAD28D9
:10015800AE28BF280A128A11F8200A128A118312BF
:10016800031388001E080A128A1108210A128A112C
:10017800831203138C1172088A00710E8300FE0E1D
:100188007E0E0900F600831603138712761DCD280C
:10019800CE28D228750894008715D62873087504C8
:1001A80094008711760874048312031394000800DE
:1001B8000A128A117F200A128A1100300A128A1143
:1001C80013200A128A11E1280A128A110C28F40055
:1001D8007408F300F30E831603130F0873068F39A0
:1001E80073068F000F1408000A128A1101210A12DF
:1001F8008A11831203131308080083160313141CAF
:100208000629072901290800F00070088312031342
:040218009300080047
:08400000FF3FFF3FFF3FFF3FC0
:04400E00D420FF3F7C
:00000001FF
